:020000040000FA
:100000000C9480000C94A8000C94A8000C94A800F8
:100010000C94A8000C94A8000C94A8000C94A800C0
:100020000C94A8000C94A8000C94A8000C94A800B0
:100030000C94A8000C94A8000C94A8000C94A800A0
:100040000C949E050C94A8000C94A8000C94A80095
:100050000C94A8000C94A8000C94A8000C94A80080
:100060000C94A8000C94A8004E414E494E49545996
:10007000494E46CDCCCC3D0AD7233C17B7D1387773
:10008000CC2B329595E6241FB14F0A000020410089
:1000900000C84200401C4620BCBE4CCA1B0E5AAED3
:1000A000C59D7400000000240027002A0000000005
:1000B00000250028002B0000000000230026002956
:1000C0000004040404040404040202020202020301
:1000D000030303030301020408102040800102040B
:1000E000081020010204081020000000080002018E
:1000F00000000304070000000000000000003B08AF
:1001000011241FBECFEFD8E0DEBFCDBF21E0A2E6B5
:10011000B1E001C01D92AE3FB207E1F711E0A0E0EF
:10012000B1E0E0ECF9E102C005900D92A236B10712
:10013000D9F710E0C0E8D0E004C02197FE010E948A
:10014000D80CCF37D107C9F70E94E8050C94DE0C14
:100150000C94000096E0899FD0011124AB58BE4F4B
:1001600090967C936E935F9791E091969C93919774
:10017000E091E201F091E3019091E101992339F0DE
:10018000309751F0811108C0809191010994309706
:1001900019F05C968C91FACF0895CF92DF92EF928E
:1001A000FF920F931F9396E0899FF0011124EB5863
:1001B000FE4F11A2278D30A12130310551F178F089
:1001C0002230310509F451C02330310509F452C001
:1001D0001F910F91FF90EF90DF90CF9008956623CD
:1001E000B9F361E070E00E94AA002FB7F894809103
:1001F000710190917201A0917301B09174012FBFB0
:100200008093CD019093CE01A093CF01B093D00104
:10021000DFCF9FB7F894C0907101D0907201E09049
:100220007301F09074019FBF0091CD011091CE0138
:100230002091CF013091D001C01AD10AE20AF30A0D
:100240000091DF011091E00130E020E00C151D0568
:100250002E053F0550F462E070E01F910F91FF9072
:10026000EF90DF90CF900C94AA006111B1CF63E0C2
:1002700070E0F3CF70E060E0F0CF833081F028F4DD
:10028000813099F08230A9F008958730A9F0883044
:10029000C9F08430B1F4809180008F7D03C08091DB
:1002A00080008F7780938000089584B58F7784BD18
:1002B000089584B58F7DFBCF8091B0008F778093B8
:1002C000B00008958091B0008F7DF9CFCF93DF9378
:1002D000282F30E0F901E751FF4F8491F901EB52EB
:1002E000FF4FD491F901EF53FF4FC491CC23A1F0FC
:1002F00081110E943D01EC2FF0E0EE0FFF1FE95449
:10030000FF4FA591B491EC91ED2381E090E009F4C9
:1003100080E0DF91CF91089580E090E0FACF1F93C5
:10032000CF93DF93282F30E0F901E751FF4F8491FD
:10033000F901EB52FF4FD491F901EF53FF4FC491F4
:10034000CC23A9F0162F81110E943D01EC2FF0E083
:10035000EE0FFF1FE355FF4FA591B4918FB7F894AF
:10036000EC91111108C0D095DE23DC938FBFDF9193
:10037000CF911F910895DE2BF8CFCF93DF9390E0BC
:10038000FC01EB52FF4F24918F539F4FFC0184914E
:100390008823C9F090E0880F991FFC01ED55FF4FAD
:1003A000A591B491FC01E355FF4FC591D491611122
:1003B0000DC09FB7F8948C91209582238C938881EF
:1003C000282328839FBFDF91CF910895623051F495
:1003D0009FB7F8943C91822F809583238C93E8817A
:1003E0002E2BEFCF8FB7F894EC912E2B2C938FBF41
:1003F000EACF3FB7F89480916D0190916E01A09182
:100400006F01B091700126B5A89B05C02F3F19F070
:100410000196A11DB11D3FBFBA2FA92F982F882784
:10042000BC01CD01620F711D811D911D42E0660F5F
:10043000771F881F991F4A95D1F70895862F642F3B
:100440000C94BD01862F642F0C948F01862F0C9481
:100450006601AF92BF92CF92DF92EF92FF920F931D
:100460001F93CF93DF936C017B018B01040F151F4A
:10047000EB015E01AE18BF08C017D10759F06991B2
:10048000D601ED91FC910190F081E02DC601099516
:10049000892B79F7C501DF91CF911F910F91FF90C3
:1004A000EF90DF90CF90BF90AF900895089590E0C7
:1004B00080E008951092620110926301109264012D
:1004C0001092650110926701109268011092690103
:1004D00010926A011092660110926B010895FC015E
:1004E00001900020E9F73197AF01481B590BBC017F
:1004F00084EE91E00C9429028F929F92AF92BF926A
:100500000F931F93CF93DF93CDB7DEB7A1970FB6AD
:10051000F894DEBF0FBECDBF19A2423008F44AE006
:100520008E010F5D1F4F842E912CB12CA12CA501A3
:1005300094010E94B60CE62FB901CA01EA30F4F426
:10054000E05DD801EE938D01232B242B252B79F729
:1005500090E080E0109719F0CD010E946F02A19603
:100560000FB6F894DEBF0FBECDBFDF91CF911F91C4
:100570000F91BF90AF909F908F900895E95CE1CF6D
:10058000CF93DF93EC0160E08E810E948F0161E0E8
:100590008E810E948F0160E08E810E948F018BE826
:1005A00091E00197F1F7DF91CF910895CF92DF921B
:1005B000EF92FF920F931F93CF93DF936C017C0117
:1005C00087E0E80EF11CD0E0C0E0062F10E0B80193
:1005D0000C2E02C0759567950A94E2F76170F701D9
:1005E00081917F010E948F012196C430D10579F756
:1005F000C601DF91CF911F910F91FF90EF90DF9097
:10060000CF900C94C002CF92DF92EF92FF920F93A3
:100610001F93CF93DF93EC01F62E642F8C810E9401
:100620008F018D818F3F19F060E00E948F010F2DA7
:1006300010E08F8584FF25C06E0187E0C80ED11CB5
:10064000F12CE12CB8010E2C02C0759567950A9427
:10065000E2F76170F60181916F010E948F01FFEF57
:10066000EF1AFF0A88E0E816F10461F7CE01DF9186
:10067000CF911F910F91FF90EF90DF90CF900C944E
:10068000C002B80184E0759567958A95E1F7CE01BF
:100690000E94D6026F2DCE01DF91CF911F910F9155
:1006A000FF90EF90DF90CF900C94D60240E0682F3F
:1006B00084EE91E00C94030381E00E9456038BE3E7
:1006C0009FE10197F1F708958F929F92AF92BF92A9
:1006D000CF92DF92EF92FF92809166018B3281F18F
:1006E00064F48A3209F45AC0FF90EF90DF90CF9003
:1006F000BF90AF909F908F9008958D32E1F18F322F
:1007000099F7C0906701D0906801E0906901F0907E
:100710006A0120E030E0A901C701B6010E94260A63
:10072000882309F44EC0A70196016091620170917F
:10073000630180916401909165010E940B0C12C0CD
:1007400020916701309168014091690150916A01DF
:1007500060916201709163018091640190916501E3
:100760000E949F0B60936201709363018093640108
:1007700090936501B9CF2091670130916801409154
:10078000690150916A0160916201709163018091E9
:100790006401909165010E949E0BE4CF2091670156
:1007A000309168014091690150916A016091620144
:1007B0007091630180916401909165010E948C0A9F
:1007C000D1CF0E945C038EE291E00E946F020E94F2
:1007D000F9014B015C0180EDC82E87E0D82EE12C99
:1007E000F12C0E94F901681979098A099B09683E70
:1007F000734081059105A8F321E0C21AD108E108F0
:10080000F10888EE880E83E0981EA11CB11CC1146B
:10081000D104E104F10429F7FF90EF90DF90CF902D
:10082000BF90AF909F908F900C945A02CF93DF931C
:10083000823029F49091F30198609093F3018093B2
:10084000F7011092F80180E48093F90180E1809330
:10085000FA0180E58093FB0161E08091E8010E944C
:10086000BD018091E9018F3F19F061E00E94BD0157
:1008700061E08091EA010E94BD01C4EED1E09E01D9
:10088000245E31408091F30184FD0BC084E090E050
:1008900021962817390744F461E08E810E94BD013A
:1008A000EECF88E090E0F4CF8BE39DE00197F1F785
:1008B00060E08091E8010E948F0160E08091EA0190
:1008C0000E948F018091E9018F3F19F060E00E9442
:1008D0008F018091F30184FD34C063E084EE91E0E8
:1008E0000E94D602CBE4D6E4CE010197F1F763E093
:1008F00084EE91E00E94D6022197F1F763E084EE46
:1009000091E00E94D60283E592E00197F1F762E060
:1009100084EE91E00E94D6028091F30180620E94F1
:10092000560384E08093F4018CE00E9456030E94F9
:100930005C0382E08093F50186E0DF91CF910C9417
:10094000560380620E9456038BE496E40197F1F708
:100950008091F30180620E94560383E592E0019743
:10096000F1F78091F30180620E945603D5CF41E0F8
:100970000E94030381E090E0089541E0682F84EE37
:1009800091E00E94030381E090E008954F925F920E
:100990006F927F928F929F92AF92BF92CF92DF928F
:1009A000EF92FF920F931F93CF936B017C01742EF4
:1009B000AC019B010E94B10C882399F086E491E080
:1009C000CF911F910F91FF90EF90DF90CF90BF904C
:1009D000AF909F908F907F906F905F904F900C940E
:1009E0006F0246015701E894B7F82FEF3FEF4FE74A
:1009F0005FE7C501B4010E94B10C81110DC02FEF5A
:100A00003FEF4FE75FE7C501B4010E94260A1816C1
:100A10001CF48AE491E0D4CF2FEF3FEF4FE75FE47F
:100A2000C701B6010E94AC0C18161CF48EE491E0CC
:100A3000C7CF2FEF3FEF4FE75FECC701B6010E9432
:100A4000260A87FDF3CF20E030E0A901C701B601F7
:100A50000E94260A10E000E087FF08C08DE20E9495
:100A6000BD048C01F7FAF094F7F8F094C0E060E070
:100A700070E080E09FE37C1641F020E030E040E24F
:100A800051E40E940B0CCF5FF6CFA70196010E94A4
:100A90009F0B2B013C010E947D0C4B015C014AE045
:100AA0000E947C027C01E00EF11ECC23B1F1C50155
:100AB000B4010E942B0A9B01AC01C301B2010E9448
:100AC0009E0B4B015C018EE20E94BD04E80EF91EF4
:100AD000C15018F120E030E040E251E4C501B4011A
:100AE0000E948C0A2B013C010E947D0C4B01B12C11
:100AF000A12C4AE0C501B4010E947C02E80EF91E57
:100B0000C501B4010E942B0A9B01AC01C301B201D3
:100B10000E949E0B4B015C01DBCFC701CF911F915F
:100B20000F91FF90EF90DF90CF90BF90AF909F908C
:100B30008F907F906F905F904F9008951F920F92CB
:100B40000FB60F9211242F933F938F939F93AF93E0
:100B5000BF938091710190917201A0917301B09146
:100B6000740130916C0123E0230F2D3758F5019665
:100B7000A11DB11D20936C018093710190937201AE
:100B8000A0937301B093740180916D0190916E01F7
:100B9000A0916F01B09170010196A11DB11D8093CC
:100BA0006D0190936E01A0936F01B0937001BF919E
:100BB000AF919F918F913F912F910F900FBE0F900A
:100BC0001F90189526E8230F0296A11DB11DD2CFC4
:100BD000CF93DF931F92CDB7DEB7789484B5826050
:100BE00084BD84B5816084BD85B5826085BD85B5D1
:100BF000816085BD80916E00816080936E0010924F
:100C000081008091810082608093810080918100C9
:100C1000816080938100809180008160809380005A
:100C20008091B10084608093B1008091B0008160B8
:100C30008093B00080917A00846080937A008091E4
:100C40007A00826080937A0080917A00816080933C
:100C50007A0080917A00806880937A001092C100B7
:100C600082E00E94160482E591E00E946F02212C2E
:100C7000312C2101239440E0642E40E0742E51E099
:100C80005093E1018FB7F894409171015091720136
:100C900060917301709174018FBF8091D101909127
:100CA000D201A091D301B091D401481B590B6A0B1A
:100CB0007B0B8091DD019091DE01B0E0A0E0841714
:100CC0009507A607B70708F018C110E08091DB016F
:100CD000181760F4E091D701F091D801E10FF11DF0
:100CE00062E080810E94BD011F5FF0CFF12C8091F6
:100CF000DC01F81608F061C0CF2CD12CE091D901AD
:100D0000F091DA01EC0DFD1D61E080810E94BD01D2
:100D1000E091D901F091DA01EC0DFD1D60E08081D8
:100D20000E948F01D201C1010F2C04C0880F991FAE
:100D3000AA1FBB1F0A94D2F74C015C01A094B09487
:100D4000E12C8091DB01E81608F50E2D10E0E09112
:100D5000D701F091D801E00FF11F80810E94660158
:100D60000C5F1F4F000F111FF801EB58FE4F892B2E
:100D700041F4808191818829992991838083E3942A
:100D8000E0CF808191818A219B21F7CFE091D90129
:100D9000F091DA01EC0DFD1D61E080810E948F0170
:100DA0008091D9019091DA01C80ED91E60E0F60158
:100DB00080810E94BD01F3949ACF05E711E0F8010C
:100DC000878D90A1892B31F4148E8FEF9FEF968F32
:100DD000858F11A2369691E0E13BF90789F7D12C76
:100DE0008091DB01D81608F053C0C12CED2CF12CFA
:100DF000EE0CFF1CF701E358FE4F7F012091DC0150
:100E0000C21608F043C0F701608171810C2C02C04A
:100E1000769567950A94E2F7D29E900111242C0DE5
:100E2000311DE5E7F1E080E0458D568D241735074B
:100E300009F41FC18F5F36968A30B1F760FF24C076
:100E4000E5E7F1E090E080E0448D411118C0E091C9
:100E5000D501F091D601E20FF31F408156E0589F73
:100E6000F001599FF00D1124EB58FE4F448F368F3F
:100E7000258F10A2178E61E00E94CD0005C001965B
:100E800036968A30910501F7C394B8CFD394A8CF92
:100E900080E0F80191A19111892F0A5F1F4FF1E0C5
:100EA000013B1F07B1F79FB7F89440917101509132
:100EB000720160917301709174019FBF4093D101E1
:100EC0005093D2016093D3017093D4018823A9F089
:100ED00080919601882389F08091940190919501E9
:100EE000019759F48091910181110AC06114710434
:100EF00009F4C5CE0E940000C2CE1092E101F6CFE7
:100F00008983282F082E000C330B205331092A30F7
:100F1000310550F590916B0191112DC00E945C0339
:100F2000CE0101960E94B1086B017C01C09267015D
:100F3000D0926801E0926901F0926A01E1E080914B
:100F4000F7018111E0E0E195F0E0EC51FE4F84897A
:100F500080680E94560342E0C701B6010E94C604A1
:100F600051E050936B01C2CF833451F50E945C0372
:100F70000E945A02BBCF0E94BD0420E030E040E254
:100F800051E46091670170916801809169019091CD
:100F90006A010E948C0A6B017C01CE0101960E94BD
:100FA000B1089B01AC01C701B6010E949F0B609381
:100FB0006701709368018093690190936A0196CFED
:100FC00090916B018D3321F5992309F48FCF809196
:100FD0006601882309F48ACF0E946403E091F70137
:100FE000E230A0F4E150F0E0EC51FE4F84898068DB
:100FF0000E945603609162017091630180916401C7
:101000009091650142E00E94C604B2CFE1E0EBCFCF
:10101000992309F46BCF80916601811125C08091DD
:10102000670190916801A0916901B0916A01809374
:10103000620190936301A0936401B0936501E09114
:10104000F701E230A0F4E150F0E0EC51FE4F84896A
:1010500080680E94560389810E94BD048981809323
:10106000660110926B0142CF0E946403E8CFE1E079
:10107000EBCF617001CF1092770110927B0110923B
:101080007A0110927C0188E291E09093760180933E
:101090007501E1E9F1E0108214821382158236961F
:1010A00081E0ED3CF807B9F784E091E09093D80136
:1010B0008093D70180E091E09093DA018093D90189
:1010C00084E08093DB018093DC0188E091E09093E1
:1010D000D6018093D5018AE090E09093DE01809361
:1010E000DD0184EF91E09093E0018093DF011092A5
:1010F000E3011092E2011092D1011092D2011092FC
:10110000D3011092D4011092E1011092E7011092E4
:10111000E6018CE191E09093E5018093E40188E0A1
:101120008093E8018FEF8093E90189E08093EA01E1
:101130008AE08093EB018BE08093EC018CE080935C
:10114000ED018DE08093EE011092EF011092F0011D
:101150001092F1011092F2011092F30181E00C94CF
:101160001604662777270C94B508B0E0A0E0EBEBF7
:10117000F8E00C945E0B5C017B016115710519F0C0
:10118000DB018D939C9385010F5F1F4FF501D0818B
:101190008D2F90E00E94050A6C01892BB9F5DD3294
:1011A000B9F50F5F1F4FD5011196DC91C1E05801D1
:1011B000F1E0AF1AB10843E050E060E770E0C5012C
:1011C0000E940E0A892B69F5680182E0C80ED11CC5
:1011D00045E050E06BE670E0C6010E940E0A892BE4
:1011E00021F4680197E0C90ED11CE114F10419F053
:1011F000D701CD92DC9260E070E080E89FEFC111F2
:10120000FFC060E070E080E89FE7FAC05801BBCF04
:10121000DB3229F485010E5F1F4FF501D181C0E05B
:10122000C6CF43E050E068E670E0C5010E940E0AB8
:10123000892BE9F0F80110E000E020E030E0A9019E
:101240005F01B0ED8B2E8D0E89E08815C8F19C2EC4
:10125000689491F88C2F8870C2FF16C0811102C06B
:101260000F5F1F4F3196D501DC91C92DE9CFE114F5
:10127000F10429F00E5F1F4FF7011183008360E036
:1012800070E080EC9FE7BCC0882311F00150110989
:10129000A5E0B0E00E944D0B9B01AC01220F331F73
:1012A000441F551F280D311D411D511D283999E935
:1012B0003907490799E15907A8F2C6609C2ED2CF99
:1012C000AEEF8A1206C0C3FD3CC09C2E689493F812
:1012D000C9CFDF7DD534A9F580818D3239F4C06165
:1012E000DF011296818162E070E006C0DF018B327F
:1012F000C1F3119661E070E080535D01A61AB70A50
:101300008A30F8F4E0E8CE16ECE0DE065CF4B601D4
:10131000660F771F660F771FC60ED71ECC0CDD1C1D
:10132000C80ED11C5D01FFEFAF1ABF0A8C9180532C
:101330008A30A8F1C4FF03C0D194C194D1080C0D28
:101340001D1DC1FF09C0E114F10431F081E0A81AAC
:10135000B108D701AD92BC92CA01B9010E942B0A13
:10136000C370C33009F490584B015C0120E030E0B9
:10137000A9010E94260A882309F440C0CFE9D0E0E1
:1013800017FF05C0119501951109C7E8D0E06E015E
:10139000B8E1CB1AD10880E2E82EF12C0FC0D501BC
:1013A000B1CFFE0125913591459154910E191F0938
:1013B000C501B4010E948C0A4B015C01D501C40136
:1013C0000E151F0574F72497F594E794CC16DD06E7
:1013D000A9F78A2F880F8B2F881F8F3F49F020E0B5
:1013E00030E0A901C501B4010E94260A811106C09E
:1013F00082E290E09093FD018093FC01C501B4016D
:10140000CDB7DEB7ECE00C947A0B91110C94F90A8D
:10141000803219F089508550C8F70895FB01DC012E
:101420004150504088F08D9181341CF08B350CF484
:10143000805E659161341CF06B350CF4605E861B38
:10144000611171F3990B0895881BFCCF0E94680A03
:1014500008F481E00895E89409C097FB3EF4909564
:101460008095709561957F4F8F4F9F4F9923A9F07D
:10147000F92F96E9BB279395F6958795779567950C
:10148000B795F111F8CFFAF4BB0F11F460FF1BC050
:101490006F5F7F4F8F4F9F4F16C0882311F096E9E3
:1014A00011C0772321F09EE8872F762F05C0662391
:1014B00071F096E8862F70E060E02AF09A95660F4A
:1014C000771F881FDAF7880F9695879597F9089503
:1014D000990F0008550FAA0BE0E8FEEF1616170645
:1014E000E807F907C0F012161306E407F50798F0AD
:1014F000621B730B840B950B39F40A2661F0232BC6
:10150000242B252B21F408950A2609F4A140A69541
:101510008FEF811D811D08950E949F0A0C94130B6B
:101520000E94050B38F00E940C0B20F0952311F05F
:101530000C94FC0A0C94020B11240C94470B0E948F
:10154000240B70F3959FC1F3950F50E0551F629FD8
:10155000F001729FBB27F00DB11D639FAA27F00D0C
:10156000B11DAA1F649F6627B00DA11D661F829F33
:101570002227B00DA11D621F739FB00DA11D621F18
:10158000839FA00D611D221F749F3327A00D611D35
:10159000231F849F600D211D822F762F6A2F112417
:1015A0009F5750409AF0F1F088234AF0EE0FFF1F4A
:1015B000BB1F661F771F881F91505040A9F79E3FA1
:1015C000510580F00C94FC0A0C94470B5F3FE4F348
:1015D000983ED4F3869577956795B795F795E795F7
:1015E0009F5FC1F7FE2B880F911D9695879597F900
:1015F000089599278827089597F99F6780E870E0F4
:1016000060E008959FEF80EC089500240A94161678
:10161000170618060906089500240A9412161306E0
:10162000140605060895092E0394000C11F488236E
:1016300052F0BB0F40F4BF2B11F460FF04C06F5F8A
:101640007F4F8F4F9F4F089557FD9058440F551F60
:1016500059F05F3F71F04795880F97FB991F61F034
:101660009F3F79F087950895121613061406551FAB
:10167000F2CF4695F1DF08C0161617061806991F17
:10168000F1CF86957105610508940895E894BB270C
:1016900066277727CB0197F908950E948F0BA59FA6
:1016A000900DB49F900DA49F800D911D112408955D
:1016B0002F923F924F925F926F927F928F929F9262
:1016C000AF92BF92CF92DF92EF92FF920F931F9350
:1016D000CF93DF93CDB7DEB7CA1BDB0B0FB6F89401
:1016E000DEBF0FBECDBF09942A88398848885F8441
:1016F0006E847D848C849B84AA84B984C884DF80B2
:10170000EE80FD800C811B81AA81B981CE0FD11D95
:101710000FB6F894DEBF0FBECDBFED010895A29FB6
:10172000B001B39FC001A39F700D811D1124911DB5
:10173000B29F700D811D1124911D08955058BB2733
:10174000AA270E94B60B0C94130B0E94050B38F0CD
:101750000E940C0B20F039F49F3F19F426F40C94EE
:10176000020B0EF4E095E7FB0C94FC0AE92F0E94B3
:10177000240B58F3BA17620773078407950720F004
:1017800079F4A6F50C94460B0EF4E0950B2EBA2FC7
:10179000A02D0B01B90190010C01CA01A001112477
:1017A000FF27591B99F0593F50F4503E68F11A1623
:1017B000F040A22F232F342F4427585FF3CF4695B4
:1017C00037952795A795F0405395C9F77EF41F16D6
:1017D000BA0B620B730B840BBAF09150A1F0FF0FA0
:1017E000BB1F661F771F881FC2F70EC0BA0F621F8C
:1017F000731F841F48F4879577956795B795F7957C
:101800009E3F08F0B0CF9395880F08F09927EE0F10
:101810009795879508950E941F0C0C94130B0E94B6
:101820000C0B58F00E94050B40F029F45F3F29F0A3
:101830000C94FC0A51110C94470B0C94020B0E945F
:10184000240B68F39923B1F3552391F3951B550BA2
:10185000BB27AA2762177307840738F09F5F5F4F83
:10186000220F331F441FAA1FA9F335D00E2E3AF0C2
:10187000E0E832D091505040E695001CCAF72BD0DA
:10188000FE2F29D0660F771F881FBB1F261737072B
:101890004807AB07B0E809F0BB0B802DBF01FF275D
:1018A00093585F4F3AF09E3F510578F00C94FC0A34
:1018B0000C94470B5F3FE4F3983ED4F386957795FD
:1018C0006795B795F7959F5FC9F7880F911D969516
:1018D000879597F90895E1E0660F771F881FBB1F72
:1018E000621773078407BA0720F0621B730B840B1F
:1018F000BA0BEE1F88F7E09508950E942C0B88F034
:101900009F5798F0B92F9927B751B0F0E1F0660FC3
:10191000771F881F991F1AF0BA95C9F714C0B13004
:1019200091F00E94460BB1E008950C94460B672F8E
:10193000782F8827B85F39F0B93FCCF38695779533
:101940006795B395D9F73EF490958095709561951C
:101950007F4F8F4F9F4F08950E94680A08F48FEFC2
:1019600008950E94680A880B990B0895A1E21A2E27
:10197000AA1BBB1BFD010DC0AA1FBB1FEE1FFF1F33
:10198000A217B307E407F50720F0A21BB30BE40B83
:10199000F50B661F771F881F991F1A9469F76095CA
:1019A0007095809590959B01AC01BD01CF01089584
:1019B000EE0FFF1F0590F491E02D0994F894FFCFEE
:1019C00004050607000102033738392F3435362A5B
:1019D0003132332D43303D2B00000000B704290283
:1019E00057025602000000001E0222022602457223
:1019F000726F723A204469766973696F6E206279FA
:101A0000207A65726F006E616E00696E66006F7697
:101A10006600202053696D706C652043616C632003
:021A20002000A4
:107E0000112484B714BE81FFF0D085E080938100F7
:107E100082E08093C00088E18093C10086E0809377
:107E2000C20080E18093C4008EE0C9D0259A86E02C
:107E300020E33CEF91E0309385002093840096BBD3
:107E4000B09BFECF1D9AA8958150A9F7CC24DD24C4
:107E500088248394B5E0AB2EA1E19A2EF3E0BF2EE7
:107E6000A2D0813461F49FD0082FAFD0023811F036
:107E7000013811F484E001C083E08DD089C08234E0
:107E800011F484E103C0853419F485E0A6D080C0E4
:107E9000853579F488D0E82EFF2485D0082F10E0AE
:107EA000102F00270E291F29000F111F8ED06801E7
:107EB0006FC0863521F484E090D080E0DECF843638
:107EC00009F040C070D06FD0082F6DD080E0C81688
:107ED00080E7D80618F4F601B7BEE895C0E0D1E017
:107EE00062D089930C17E1F7F0E0CF16F0E7DF06D8
:107EF00018F0F601B7BEE89568D007B600FCFDCFD4
:107F0000A601A0E0B1E02C9130E011968C91119780
:107F100090E0982F8827822B932B1296FA010C0160
:107F200087BEE89511244E5F5F4FF1E0A038BF0790
:107F300051F7F601A7BEE89507B600FCFDCF97BE46
:107F4000E89526C08437B1F42ED02DD0F82E2BD052
:107F50003CD0F601EF2C8F010F5F1F4F84911BD097
:107F6000EA94F801C1F70894C11CD11CFA94CF0C13
:107F7000D11C0EC0853739F428D08EE10CD085E9AC
:107F80000AD08FE07ACF813511F488E018D01DD067
:107F900080E101D065CF982F8091C00085FFFCCF94
:107FA0009093C60008958091C00087FFFCCF809118
:107FB000C00084FD01C0A8958091C6000895E0E648
:107FC000F0E098E1908380830895EDDF803219F02E
:107FD00088E0F5DFFFCF84E1DECF1F93182FE3DFCA
:107FE0001150E9F7F2DF1F91089580E0E8DFEE27F6
:047FF000FF270994CA
:027FFE00040479
:00000001FF
